{
  "_format": "hh-sol-artifact-1",
  "contractName": "RealEstate",
  "sourceName": "contracts/RealEstate.sol",
  "abi": [
    {
      "anonymous": false,
      "inputs": [
        {
          "indexed": true,
          "internalType": "uint256",
          "name": "id",
          "type": "uint256"
        },
        {
          "indexed": true,
          "internalType": "address",
          "name": "owner",
          "type": "address"
        },
        {
          "indexed": false,
          "internalType": "uint256",
          "name": "price",
          "type": "uint256"
        }
      ],
      "name": "PropertyListed",
      "type": "event"
    },
    {
      "anonymous": false,
      "inputs": [
        {
          "indexed": true,
          "internalType": "uint256",
          "name": "id",
          "type": "uint256"
        },
        {
          "indexed": true,
          "internalType": "address",
          "name": "oldOwner",
          "type": "address"
        },
        {
          "indexed": true,
          "internalType": "address",
          "name": "newOwner",
          "type": "address"
        },
        {
          "indexed": false,
          "internalType": "uint256",
          "name": "price",
          "type": "uint256"
        }
      ],
      "name": "PropertyResold",
      "type": "event"
    },
    {
      "anonymous": false,
      "inputs": [
        {
          "indexed": true,
          "internalType": "uint256",
          "name": "id",
          "type": "uint256"
        },
        {
          "indexed": true,
          "internalType": "address",
          "name": "oldOwner",
          "type": "address"
        },
        {
          "indexed": true,
          "internalType": "address",
          "name": "newOwner",
          "type": "address"
        },
        {
          "indexed": false,
          "internalType": "uint256",
          "name": "price",
          "type": "uint256"
        }
      ],
      "name": "PropertySold",
      "type": "event"
    },
    {
      "anonymous": false,
      "inputs": [
        {
          "indexed": true,
          "internalType": "uint256",
          "name": "productId",
          "type": "uint256"
        },
        {
          "indexed": true,
          "internalType": "address",
          "name": "reviewer",
          "type": "address"
        },
        {
          "indexed": false,
          "internalType": "uint8",
          "name": "rating",
          "type": "uint8"
        },
        {
          "indexed": false,
          "internalType": "string",
          "name": "comment",
          "type": "string"
        }
      ],
      "name": "ReviewAdded",
      "type": "event"
    },
    {
      "anonymous": false,
      "inputs": [
        {
          "indexed": true,
          "internalType": "uint256",
          "name": "productId",
          "type": "uint256"
        },
        {
          "indexed": true,
          "internalType": "uint256",
          "name": "reviewIndex",
          "type": "uint256"
        },
        {
          "indexed": true,
          "internalType": "address",
          "name": "liker",
          "type": "address"
        },
        {
          "indexed": false,
          "internalType": "uint256",
          "name": "likes",
          "type": "uint256"
        }
      ],
      "name": "ReviewLiked",
      "type": "event"
    },
    {
      "inputs": [
        {
          "internalType": "uint256",
          "name": "productId",
          "type": "uint256"
        },
        {
          "internalType": "uint8",
          "name": "rating",
          "type": "uint8"
        },
        {
          "internalType": "string",
          "name": "comment",
          "type": "string"
        },
        {
          "internalType": "address",
          "name": "user",
          "type": "address"
        }
      ],
      "name": "addReview",
      "outputs": [],
      "stateMutability": "nonpayable",
      "type": "function"
    },
    {
      "inputs": [
        {
          "internalType": "uint256",
          "name": "id",
          "type": "uint256"
        },
        {
          "internalType": "address",
          "name": "buyer",
          "type": "address"
        }
      ],
      "name": "buyProperty",
      "outputs": [],
      "stateMutability": "payable",
      "type": "function"
    },
    {
      "inputs": [],
      "name": "getAllProperties",
      "outputs": [
        {
          "components": [
            {
              "internalType": "uint256",
              "name": "productID",
              "type": "uint256"
            },
            {
              "internalType": "address",
              "name": "owner",
              "type": "address"
            },
            {
              "internalType": "uint256",
              "name": "price",
              "type": "uint256"
            },
            {
              "internalType": "string",
              "name": "propertyTitle",
              "type": "string"
            },
            {
              "internalType": "string",
              "name": "category",
              "type": "string"
            },
            {
              "internalType": "string",
              "name": "images",
              "type": "string"
            },
            {
              "internalType": "string",
              "name": "propertyAddress",
              "type": "string"
            },
            {
              "internalType": "string",
              "name": "description",
              "type": "string"
            },
            {
              "internalType": "address[]",
              "name": "reviewers",
              "type": "address[]"
            },
            {
              "internalType": "string[]",
              "name": "reviews",
              "type": "string[]"
            }
          ],
          "internalType": "struct RealEstate.Property[]",
          "name": "",
          "type": "tuple[]"
        }
      ],
      "stateMutability": "view",
      "type": "function"
    },
    {
      "inputs": [],
      "name": "getHighestRatedProduct",
      "outputs": [
        {
          "internalType": "uint256",
          "name": "",
          "type": "uint256"
        }
      ],
      "stateMutability": "view",
      "type": "function"
    },
    {
      "inputs": [],
      "name": "getListingPrice",
      "outputs": [
        {
          "internalType": "uint256",
          "name": "",
          "type": "uint256"
        }
      ],
      "stateMutability": "view",
      "type": "function"
    },
    {
      "inputs": [
        {
          "internalType": "uint256",
          "name": "productId",
          "type": "uint256"
        }
      ],
      "name": "getProductReviews",
      "outputs": [
        {
          "components": [
            {
              "internalType": "address",
              "name": "reviewer",
              "type": "address"
            },
            {
              "internalType": "uint256",
              "name": "productId",
              "type": "uint256"
            },
            {
              "internalType": "uint8",
              "name": "rating",
              "type": "uint8"
            },
            {
              "internalType": "string",
              "name": "comment",
              "type": "string"
            },
            {
              "internalType": "uint256",
              "name": "likes",
              "type": "uint256"
            },
            {
              "internalType": "uint256",
              "name": "reviewIndex",
              "type": "uint256"
            }
          ],
          "internalType": "struct RealEstate.Review[]",
          "name": "",
          "type": "tuple[]"
        }
      ],
      "stateMutability": "view",
      "type": "function"
    },
    {
      "inputs": [
        {
          "internalType": "uint256",
          "name": "id",
          "type": "uint256"
        }
      ],
      "name": "getProperty",
      "outputs": [
        {
          "internalType": "uint256",
          "name": "",
          "type": "uint256"
        },
        {
          "internalType": "address",
          "name": "",
          "type": "address"
        },
        {
          "internalType": "uint256",
          "name": "",
          "type": "uint256"
        },
        {
          "internalType": "string",
          "name": "",
          "type": "string"
        },
        {
          "internalType": "string",
          "name": "",
          "type": "string"
        },
        {
          "internalType": "string",
          "name": "",
          "type": "string"
        },
        {
          "internalType": "string",
          "name": "",
          "type": "string"
        },
        {
          "internalType": "string",
          "name": "",
          "type": "string"
        },
        {
          "internalType": "address[]",
          "name": "",
          "type": "address[]"
        },
        {
          "internalType": "string[]",
          "name": "",
          "type": "string[]"
        }
      ],
      "stateMutability": "view",
      "type": "function"
    },
    {
      "inputs": [
        {
          "internalType": "address",
          "name": "user",
          "type": "address"
        }
      ],
      "name": "getUserProperties",
      "outputs": [
        {
          "components": [
            {
              "internalType": "uint256",
              "name": "productID",
              "type": "uint256"
            },
            {
              "internalType": "address",
              "name": "owner",
              "type": "address"
            },
            {
              "internalType": "uint256",
              "name": "price",
              "type": "uint256"
            },
            {
              "internalType": "string",
              "name": "propertyTitle",
              "type": "string"
            },
            {
              "internalType": "string",
              "name": "category",
              "type": "string"
            },
            {
              "internalType": "string",
              "name": "images",
              "type": "string"
            },
            {
              "internalType": "string",
              "name": "propertyAddress",
              "type": "string"
            },
            {
              "internalType": "string",
              "name": "description",
              "type": "string"
            },
            {
              "internalType": "address[]",
              "name": "reviewers",
              "type": "address[]"
            },
            {
              "internalType": "string[]",
              "name": "reviews",
              "type": "string[]"
            }
          ],
          "internalType": "struct RealEstate.Property[]",
          "name": "",
          "type": "tuple[]"
        }
      ],
      "stateMutability": "view",
      "type": "function"
    },
    {
      "inputs": [
        {
          "internalType": "address",
          "name": "user",
          "type": "address"
        }
      ],
      "name": "getUserReviews",
      "outputs": [
        {
          "components": [
            {
              "internalType": "address",
              "name": "reviewer",
              "type": "address"
            },
            {
              "internalType": "uint256",
              "name": "productId",
              "type": "uint256"
            },
            {
              "internalType": "uint8",
              "name": "rating",
              "type": "uint8"
            },
            {
              "internalType": "string",
              "name": "comment",
              "type": "string"
            },
            {
              "internalType": "uint256",
              "name": "likes",
              "type": "uint256"
            },
            {
              "internalType": "uint256",
              "name": "reviewIndex",
              "type": "uint256"
            }
          ],
          "internalType": "struct RealEstate.Review[]",
          "name": "",
          "type": "tuple[]"
        }
      ],
      "stateMutability": "view",
      "type": "function"
    },
    {
      "inputs": [
        {
          "internalType": "uint256",
          "name": "productId",
          "type": "uint256"
        },
        {
          "internalType": "uint256",
          "name": "reviewIndex",
          "type": "uint256"
        },
        {
          "internalType": "address",
          "name": "user",
          "type": "address"
        }
      ],
      "name": "likeReview",
      "outputs": [],
      "stateMutability": "nonpayable",
      "type": "function"
    },
    {
      "inputs": [
        {
          "internalType": "address",
          "name": "owner",
          "type": "address"
        },
        {
          "internalType": "uint256",
          "name": "price",
          "type": "uint256"
        },
        {
          "internalType": "string",
          "name": "_propertyTitle",
          "type": "string"
        },
        {
          "internalType": "string",
          "name": "_category",
          "type": "string"
        },
        {
          "internalType": "string",
          "name": "_images",
          "type": "string"
        },
        {
          "internalType": "string",
          "name": "_propertyAddress",
          "type": "string"
        },
        {
          "internalType": "string",
          "name": "_description",
          "type": "string"
        }
      ],
      "name": "listProperty",
      "outputs": [
        {
          "internalType": "uint256",
          "name": "",
          "type": "uint256"
        },
        {
          "internalType": "string",
          "name": "",
          "type": "string"
        },
        {
          "internalType": "string",
          "name": "",
          "type": "string"
        },
        {
          "internalType": "string",
          "name": "",
          "type": "string"
        },
        {
          "internalType": "string",
          "name": "",
          "type": "string"
        }
      ],
      "stateMutability": "nonpayable",
      "type": "function"
    },
    {
      "inputs": [],
      "name": "listingPrice",
      "outputs": [
        {
          "internalType": "uint256",
          "name": "",
          "type": "uint256"
        }
      ],
      "stateMutability": "view",
      "type": "function"
    },
    {
      "inputs": [],
      "name": "propertyIndex",
      "outputs": [
        {
          "internalType": "uint256",
          "name": "",
          "type": "uint256"
        }
      ],
      "stateMutability": "view",
      "type": "function"
    },
    {
      "inputs": [],
      "name": "reviewsCounter",
      "outputs": [
        {
          "internalType": "uint256",
          "name": "",
          "type": "uint256"
        }
      ],
      "stateMutability": "view",
      "type": "function"
    },
    {
      "inputs": [
        {
          "internalType": "uint256",
          "name": "_listingPrice",
          "type": "uint256"
        },
        {
          "internalType": "address",
          "name": "owner",
          "type": "address"
        }
      ],
      "name": "updateListingPrice",
      "outputs": [],
      "stateMutability": "payable",
      "type": "function"
    },
    {
      "inputs": [
        {
          "internalType": "address",
          "name": "owner",
          "type": "address"
        },
        {
          "internalType": "uint256",
          "name": "productId",
          "type": "uint256"
        },
        {
          "internalType": "uint256",
          "name": "price",
          "type": "uint256"
        }
      ],
      "name": "updatePrice",
      "outputs": [
        {
          "internalType": "string",
          "name": "",
          "type": "string"
        }
      ],
      "stateMutability": "nonpayable",
      "type": "function"
    },
    {
      "inputs": [
        {
          "internalType": "address",
          "name": "owner",
          "type": "address"
        },
        {
          "internalType": "uint256",
          "name": "productId",
          "type": "uint256"
        },
        {
          "internalType": "string",
          "name": "_propertyTitle",
          "type": "string"
        },
        {
          "internalType": "string",
          "name": "_category",
          "type": "string"
        },
        {
          "internalType": "string",
          "name": "_images",
          "type": "string"
        },
        {
          "internalType": "string",
          "name": "_propertyAddress",
          "type": "string"
        },
        {
          "internalType": "string",
          "name": "_description",
          "type": "string"
        }
      ],
      "name": "updateProperty",
      "outputs": [
        {
          "internalType": "uint256",
          "name": "",
          "type": "uint256"
        },
        {
          "internalType": "string",
          "name": "",
          "type": "string"
        },
        {
          "internalType": "string",
          "name": "",
          "type": "string"
        },
        {
          "internalType": "string",
          "name": "",
          "type": "string"
        },
        {
          "internalType": "string",
          "name": "",
          "type": "string"
        },
        {
          "internalType": "string",
          "name": "",
          "type": "string"
        }
      ],
      "stateMutability": "nonpayable",
      "type": "function"
    }
  ],
  "bytecode": "0x6080604052600080546001600160a01b03191673b309098bcb51e5c687a16fa41bd6055f47c9ebb01790556658d15e1762800060015534801561004157600080fd5b50612bf7806100516000396000f3fe60806040526004361061010e5760003560e01c806380cad5a6116100a5578063c78f19f911610074578063e2fc6b9511610059578063e2fc6b95146102ec578063e57d6fb71461030c578063f56720b51461033957600080fd5b8063c78f19f9146102b6578063dc035e6d146102cc57600080fd5b806380cad5a614610263578063844ce562146102785780639e92a6941461028e578063a3007b1f146102a157600080fd5b80633b3bfa15116100e15780633b3bfa15146101cb5780633d51402c146101fd57806346a4237b14610212578063707893081461023257600080fd5b8063060a3e611461011357806312e855851461014957806318d0e8b21461016857806332665ffb14610195575b600080fd5b34801561011f57600080fd5b5061013361012e366004612120565b61034f565b6040516101409190612224565b60405180910390f35b34801561015557600080fd5b506001545b604051908152602001610140565b34801561017457600080fd5b50610188610183366004612120565b610967565b6040516101409190612361565b3480156101a157600080fd5b506101b56101b03660046123ff565b610c5a565b6040516101409a9998979695949392919061246d565b3480156101d757600080fd5b506101eb6101e63660046125f3565b61113b565b604051610140969594939291906126df565b34801561020957600080fd5b50610133611218565b34801561021e57600080fd5b5061018861022d3660046123ff565b611783565b34801561023e57600080fd5b5061025261024d3660046125f3565b6118c9565b604051610140959493929190612753565b6102766102713660046127b2565b611a34565b005b34801561028457600080fd5b5061015a60075481565b61027661029c3660046127b2565b611b3d565b3480156102ad57600080fd5b5061015a611c78565b3480156102c257600080fd5b5061015a60015481565b3480156102d857600080fd5b506102766102e73660046127de565b611cff565b3480156102f857600080fd5b50610276610307366004612813565b611d98565b34801561031857600080fd5b5061032c6103273660046128b9565b612051565b60405161014091906128ec565b34801561034557600080fd5b5061015a60035481565b600354606090600080805b838110156103bd576001600160a01b0386166002600061037b846001612915565b81526020810191909152604001600020600101546001600160a01b0316036103ab576103a8600184612915565b92505b806103b58161292e565b91505061035a565b5060008267ffffffffffffffff8111156103d9576103d9612550565b60405190808252806020026020018201604052801561046957816020015b6104566040518061014001604052806000815260200160006001600160a01b0316815260200160008152602001606081526020016060815260200160608152602001606081526020016060815260200160608152602001606081525090565b8152602001906001900390816103f75790505b50905060005b8481101561095d576001600160a01b03871660026000610490846001612915565b81526020810191909152604001600020600101546001600160a01b03160361094b5760006104bf826001612915565b6000818152600260208181526040928390208351610140810185528154815260018201546001600160a01b031692810192909252918201549281019290925260038101805493945090928391606084019161051990612947565b80601f016020809104026020016040519081016040528092919081815260200182805461054590612947565b80156105925780601f1061056757610100808354040283529160200191610592565b820191906000526020600020905b81548152906001019060200180831161057557829003601f168201915b505050505081526020016004820180546105ab90612947565b80601f01602080910402602001604051908101604052809291908181526020018280546105d790612947565b80156106245780601f106105f957610100808354040283529160200191610624565b820191906000526020600020905b81548152906001019060200180831161060757829003601f168201915b5050505050815260200160058201805461063d90612947565b80601f016020809104026020016040519081016040528092919081815260200182805461066990612947565b80156106b65780601f1061068b576101008083540402835291602001916106b6565b820191906000526020600020905b81548152906001019060200180831161069957829003601f168201915b505050505081526020016006820180546106cf90612947565b80601f01602080910402602001604051908101604052809291908181526020018280546106fb90612947565b80156107485780601f1061071d57610100808354040283529160200191610748565b820191906000526020600020905b81548152906001019060200180831161072b57829003601f168201915b5050505050815260200160078201805461076190612947565b80601f016020809104026020016040519081016040528092919081815260200182805461078d90612947565b80156107da5780601f106107af576101008083540402835291602001916107da565b820191906000526020600020905b8154815290600101906020018083116107bd57829003601f168201915b505050505081526020016008820180548060200260200160405190810160405280929190818152602001828054801561083c57602002820191906000526020600020905b81546001600160a01b0316815260019091019060200180831161081e575b5050505050815260200160098201805480602002602001604051908101604052809291908181526020016000905b8282101561091657838290600052602060002001805461088990612947565b80601f01602080910402602001604051908101604052809291908181526020018280546108b590612947565b80156109025780601f106108d757610100808354040283529160200191610902565b820191906000526020600020905b8154815290600101906020018083116108e557829003601f168201915b50505050508152602001906001019061086a565b505050508152505084868151811061093057610930612981565b6020908102919091010152610946600186612915565b945050505b806109558161292e565b91505061046f565b5095945050505050565b6001600160a01b0381166000908152600560205260408120546060918167ffffffffffffffff81111561099c5761099c612550565b604051908082528060200260200182016040528015610a1257816020015b6109ff6040518060c0016040528060006001600160a01b0316815260200160008152602001600060ff1681526020016060815260200160008152602001600081525090565b8152602001906001900390816109ba5790505b50905060005b6001600160a01b038516600090815260056020526040902054811015610c52576001600160a01b0385166000908152600560205260408120805483908110610a6257610a62612981565b90600052602060002001549050600060046000838152602001908152602001600020805480602002602001604051908101604052809291908181526020016000905b82821015610baa5760008481526020908190206040805160c0810182526006860290920180546001600160a01b03168352600181015493830193909352600283015460ff1690820152600382018054919291606084019190610b0590612947565b80601f0160208091040260200160405190810160405280929190818152602001828054610b3190612947565b8015610b7e5780601f10610b5357610100808354040283529160200191610b7e565b820191906000526020600020905b815481529060010190602001808311610b6157829003601f168201915b505050505081526020016004820154815260200160058201548152505081526020019060010190610aa4565b50505050905060005b8151811015610c3c57876001600160a01b0316828281518110610bd857610bd8612981565b6020026020010151600001516001600160a01b031603610c2a57818181518110610c0457610c04612981565b6020026020010151858581518110610c1e57610c1e612981565b60200260200101819052505b80610c348161292e565b915050610bb3565b5050508080610c4a9061292e565b915050610a18565b509392505050565b600080600060608060608060608060606000600260008d815260200190815260200160002060405180610140016040529081600082015481526020016001820160009054906101000a90046001600160a01b03166001600160a01b03166001600160a01b0316815260200160028201548152602001600382018054610cde90612947565b80601f0160208091040260200160405190810160405280929190818152602001828054610d0a90612947565b8015610d575780601f10610d2c57610100808354040283529160200191610d57565b820191906000526020600020905b815481529060010190602001808311610d3a57829003601f168201915b50505050508152602001600482018054610d7090612947565b80601f0160208091040260200160405190810160405280929190818152602001828054610d9c90612947565b8015610de95780601f10610dbe57610100808354040283529160200191610de9565b820191906000526020600020905b815481529060010190602001808311610dcc57829003601f168201915b50505050508152602001600582018054610e0290612947565b80601f0160208091040260200160405190810160405280929190818152602001828054610e2e90612947565b8015610e7b5780601f10610e5057610100808354040283529160200191610e7b565b820191906000526020600020905b815481529060010190602001808311610e5e57829003601f168201915b50505050508152602001600682018054610e9490612947565b80601f0160208091040260200160405190810160405280929190818152602001828054610ec090612947565b8015610f0d5780601f10610ee257610100808354040283529160200191610f0d565b820191906000526020600020905b815481529060010190602001808311610ef057829003601f168201915b50505050508152602001600782018054610f2690612947565b80601f0160208091040260200160405190810160405280929190818152602001828054610f5290612947565b8015610f9f5780601f10610f7457610100808354040283529160200191610f9f565b820191906000526020600020905b815481529060010190602001808311610f8257829003601f168201915b505050505081526020016008820180548060200260200160405190810160405280929190818152602001828054801561100157602002820191906000526020600020905b81546001600160a01b03168152600190910190602001808311610fe3575b5050505050815260200160098201805480602002602001604051908101604052809291908181526020016000905b828210156110db57838290600052602060002001805461104e90612947565b80601f016020809104026020016040519081016040528092919081815260200182805461107a90612947565b80156110c75780601f1061109c576101008083540402835291602001916110c7565b820191906000526020600020905b8154815290600101906020018083116110aa57829003601f168201915b50505050508152602001906001019061102f565b50505050815250509050806000015181602001518260400151836060015184608001518560a001518660c001518760e001518861010001518961012001519a509a509a509a509a509a509a509a509a509a50509193959799509193959799565b600086815260026020526040812060018101546060918291829182918291906001600160a01b038f81169116146111b95760405162461bcd60e51b815260206004820152601460248201527f596f7520617265206e6f7420616e206f776e657200000000000000000000000060448201526064015b60405180910390fd5b600381016111c78d826129e6565b50600481016111d68c826129e6565b50600581016111e58b826129e6565b50600681016111f48a826129e6565b506007810161120389826129e6565b509b9d9a9c50959a5096989596505050505050565b6003546060906000808267ffffffffffffffff81111561123a5761123a612550565b6040519080825280602002602001820160405280156112ca57816020015b6112b76040518061014001604052806000815260200160006001600160a01b0316815260200160008152602001606081526020016060815260200160608152602001606081526020016060815260200160608152602001606081525090565b8152602001906001900390816112585790505b50905060005b83811015610c525760006112e5826001612915565b6000818152600260208181526040928390208351610140810185528154815260018201546001600160a01b031692810192909252918201549281019290925260038101805493945090928391606084019161133f90612947565b80601f016020809104026020016040519081016040528092919081815260200182805461136b90612947565b80156113b85780601f1061138d576101008083540402835291602001916113b8565b820191906000526020600020905b81548152906001019060200180831161139b57829003601f168201915b505050505081526020016004820180546113d190612947565b80601f01602080910402602001604051908101604052809291908181526020018280546113fd90612947565b801561144a5780601f1061141f5761010080835404028352916020019161144a565b820191906000526020600020905b81548152906001019060200180831161142d57829003601f168201915b5050505050815260200160058201805461146390612947565b80601f016020809104026020016040519081016040528092919081815260200182805461148f90612947565b80156114dc5780601f106114b1576101008083540402835291602001916114dc565b820191906000526020600020905b8154815290600101906020018083116114bf57829003601f168201915b505050505081526020016006820180546114f590612947565b80601f016020809104026020016040519081016040528092919081815260200182805461152190612947565b801561156e5780601f106115435761010080835404028352916020019161156e565b820191906000526020600020905b81548152906001019060200180831161155157829003601f168201915b5050505050815260200160078201805461158790612947565b80601f01602080910402602001604051908101604052809291908181526020018280546115b390612947565b80156116005780601f106115d557610100808354040283529160200191611600565b820191906000526020600020905b8154815290600101906020018083116115e357829003601f168201915b505050505081526020016008820180548060200260200160405190810160405280929190818152602001828054801561166257602002820191906000526020600020905b81546001600160a01b03168152600190910190602001808311611644575b5050505050815260200160098201805480602002602001604051908101604052809291908181526020016000905b8282101561173c5783829060005260206000200180546116af90612947565b80601f01602080910402602001604051908101604052809291908181526020018280546116db90612947565b80156117285780601f106116fd57610100808354040283529160200191611728565b820191906000526020600020905b81548152906001019060200180831161170b57829003601f168201915b505050505081526020019060010190611690565b505050508152505084868151811061175657611756612981565b602090810291909101015261176c600186612915565b94505050808061177b9061292e565b9150506112d0565b606060046000838152602001908152602001600020805480602002602001604051908101604052809291908181526020016000905b828210156118be5760008481526020908190206040805160c0810182526006860290920180546001600160a01b03168352600181015493830193909352600283015460ff169082015260038201805491929160608401919061181990612947565b80601f016020809104026020016040519081016040528092919081815260200182805461184590612947565b80156118925780601f1061186757610100808354040283529160200191611892565b820191906000526020600020905b81548152906001019060200180831161187557829003601f168201915b5050505050815260200160048201548152602001600582015481525050815260200190600101906117b8565b505050509050919050565b600060608060608060008b116119215760405162461bcd60e51b815260206004820152601d60248201527f5072696365206d7573742062652067726561746572207468616e20302e00000060448201526064016111b0565b600380549060006119318361292e565b91905055506000600354905060006002600083815260200190815260200160002090508181600001819055508d8160010160006101000a8154816001600160a01b0302191690836001600160a01b031602179055508c81600201819055508b8160030190816119a091906129e6565b50600481016119af8c826129e6565b50600581016119be8b826129e6565b50600681016119cd8a826129e6565b50600781016119dc89826129e6565b508d6001600160a01b0316827f23fb658c1698b92f5fe511a079c17ecf7965cbc3f1b873328c67e2c3c0820f1f8f604051611a1991815260200190565b60405180910390a3509c999b50949950959795505050505050565b6000546001600160a01b03163314611ab45760405162461bcd60e51b815260206004820152603760248201527f6f6e6c79206f776e6572206f662074686520636f6e74726163742063616e206360448201527f68616e676520746865206c697374696e6720707269636500000000000000000060648201526084016111b0565b6000546001600160a01b03828116911614611b375760405162461bcd60e51b815260206004820152602d60248201527f4f6e6c7920636f6e7472616374206f776e65722063616e20757064617465206c60448201527f697374696e672070726963652e0000000000000000000000000000000000000060648201526084016111b0565b50600155565b6000828152600260208190526040909120015434908114611ba05760405162461bcd60e51b815260206004820152601360248201527f496e73756666696369656e742066756e64732e0000000000000000000000000060448201526064016111b0565b600083815260026020526040808220600181015491519092916001600160a01b03169084908381818185875af1925050503d8060008114611bfd576040519150601f19603f3d011682016040523d82523d6000602084013e611c02565b606091505b505090508015611c715760018201805473ffffffffffffffffffffffffffffffffffffffff19166001600160a01b038616908117909155604051848152819087907fddd64180d9701c7ede08673ac8106484ff983a472929330d4fbde4e35d65cb069060200160405180910390a45b5050505050565b60008080805b600754811015611cf8576000611c95826001612915565b60008181526006602052604090206002015490915015611ce55760008181526006602052604081206002810154600190910154611cd29190612aa6565b905084811115611ce3578094508193505b505b5080611cf08161292e565b915050611c7e565b5092915050565b6000838152600460205260408120805484908110611d1f57611d1f612981565b90600052602060002090600602019050806004016000815480929190611d449061292e565b9190505550816001600160a01b031683857fc58deae63c2d94e1502a392380f59901dc4cd3c3bbc40308b6189decf09671d58460040154604051611d8a91815260200190565b60405180910390a450505050565b60018460ff1610158015611db0575060058460ff1611155b611dfc5760405162461bcd60e51b815260206004820152601f60248201527f526174696e67206d757374206265206265747765656e203120616e6420352e0060448201526064016111b0565b600085815260026020908152604082206008810180546001808201835591855283852001805473ffffffffffffffffffffffffffffffffffffffff19166001600160a01b038716179055600982018054918201815584529190922001611e63848683612ac8565b50600460008781526020019081526020016000206040518060c00160405280846001600160a01b031681526020018881526020018760ff16815260200186868080601f01602080910402602001604051908101604052809392919081815260200183838082843760009201829052509385525050506020808301829052600754604093840152845460018082018755958352918190208451600690930201805473ffffffffffffffffffffffffffffffffffffffff19166001600160a01b039093169290921782558301519381019390935581015160028301805460ff191660ff90921691909117905560608101519091906003820190611f6490826129e6565b506080820151600482015560a0909101516005918201556001600160a01b038316600090815260209182526040808220805460018181018355918452848420018a905589835260069093528120909101805460ff88169290611fc7908490612915565b90915550506000868152600660205260408120600201805491611fe98361292e565b9190505550816001600160a01b0316867f4a7905ef60a1bc6706f11a56f05a4ebb480a37effdcaaba357946727b7aa074387878760405161202c93929190612b88565b60405180910390a3600780549060006120448361292e565b9190505550505050505050565b60008281526002602052604090206001810154606091906001600160a01b038681169116146120c25760405162461bcd60e51b815260206004820152601460248201527f596f7520617265206e6f7420616e206f776e657200000000000000000000000060448201526064016111b0565b6002018290555060408051808201909152601e81527f596f75722050726f70657274792050726963652049732055706461746564000060208201529392505050565b80356001600160a01b038116811461211b57600080fd5b919050565b60006020828403121561213257600080fd5b61213b82612104565b9392505050565b6000815180845260005b818110156121685760208185018101518683018201520161214c565b506000602082860101526020601f19601f83011685010191505092915050565b600081518084526020808501945080840160005b838110156121c15781516001600160a01b03168752958201959082019060010161219c565b509495945050505050565b600082825180855260208086019550808260051b84010181860160005b8481101561221757601f19868403018952612205838351612142565b988401989250908301906001016121e9565b5090979650505050505050565b60006020808301818452808551808352604092508286019150828160051b87010184880160005b8381101561235357888303603f19018552815180518452878101516001600160a01b0381168986015261014090508782015188860152606080830151828288015261229883880182612142565b92505050608080830151868303828801526122b38382612142565b9250505060a080830151868303828801526122ce8382612142565b9250505060c080830151868303828801526122e98382612142565b9250505060e080830151868303828801526123048382612142565b9250505061010080830151868303828801526123208382612188565b92505050610120808301519250858203818701525061233f81836121cc565b96890196945050509086019060010161224b565b509098975050505050505050565b60006020808301818452808551808352604092508286019150828160051b87010184880160005b8381101561235357603f19898403018552815160c06001600160a01b038251168552888201518986015260ff88830151168886015260608083015182828801526123d483880182612142565b6080858101519089015260a09485015194909701939093525050509386019390860190600101612388565b60006020828403121561241157600080fd5b5035919050565b600081518084526020808501808196508360051b8101915082860160005b8581101561246057828403895261244e848351612142565b98850198935090840190600101612436565b5091979650505050505050565b60006101408c835260206001600160a01b03808e16828601528c604086015282606086015261249e8386018d612142565b925084830360808601526124b2838c612142565b925084830360a08601526124c6838b612142565b925084830360c08601526124da838a612142565b925084830360e08601526124ee8389612142565b858103610100870152875180825283890194509083019060005b81811015612526578551841683529484019491840191600101612508565b505085810361012087015261253b8188612418565b9450505050509b9a5050505050505050505050565b634e487b7160e01b600052604160045260246000fd5b600082601f83011261257757600080fd5b813567ffffffffffffffff8082111561259257612592612550565b604051601f8301601f19908116603f011681019082821181831017156125ba576125ba612550565b816040528381528660208588010111156125d357600080fd5b836020870160208301376000602085830101528094505050505092915050565b600080600080600080600060e0888a03121561260e57600080fd5b61261788612104565b965060208801359550604088013567ffffffffffffffff8082111561263b57600080fd5b6126478b838c01612566565b965060608a013591508082111561265d57600080fd5b6126698b838c01612566565b955060808a013591508082111561267f57600080fd5b61268b8b838c01612566565b945060a08a01359150808211156126a157600080fd5b6126ad8b838c01612566565b935060c08a01359150808211156126c357600080fd5b506126d08a828b01612566565b91505092959891949750929550565b86815260c0602082015260006126f860c0830188612142565b828103604084015261270a8188612142565b9050828103606084015261271e8187612142565b905082810360808401526127328186612142565b905082810360a08401526127468185612142565b9998505050505050505050565b85815260a06020820152600061276c60a0830187612142565b828103604084015261277e8187612142565b905082810360608401526127928186612142565b905082810360808401526127a68185612142565b98975050505050505050565b600080604083850312156127c557600080fd5b823591506127d560208401612104565b90509250929050565b6000806000606084860312156127f357600080fd5b833592506020840135915061280a60408501612104565b90509250925092565b60008060008060006080868803121561282b57600080fd5b85359450602086013560ff8116811461284357600080fd5b9350604086013567ffffffffffffffff8082111561286057600080fd5b818801915088601f83011261287457600080fd5b81358181111561288357600080fd5b89602082850101111561289557600080fd5b6020830195508094505050506128ad60608701612104565b90509295509295909350565b6000806000606084860312156128ce57600080fd5b6128d784612104565b95602085013595506040909401359392505050565b60208152600061213b6020830184612142565b634e487b7160e01b600052601160045260246000fd5b80820180821115612928576129286128ff565b92915050565b600060018201612940576129406128ff565b5060010190565b600181811c9082168061295b57607f821691505b60208210810361297b57634e487b7160e01b600052602260045260246000fd5b50919050565b634e487b7160e01b600052603260045260246000fd5b601f8211156129e157600081815260208120601f850160051c810160208610156129be5750805b601f850160051c820191505b818110156129dd578281556001016129ca565b5050505b505050565b815167ffffffffffffffff811115612a0057612a00612550565b612a1481612a0e8454612947565b84612997565b602080601f831160018114612a495760008415612a315750858301515b600019600386901b1c1916600185901b1785556129dd565b600085815260208120601f198616915b82811015612a7857888601518255948401946001909101908401612a59565b5085821015612a965787850151600019600388901b60f8161c191681555b5050505050600190811b01905550565b600082612ac357634e487b7160e01b600052601260045260246000fd5b500490565b67ffffffffffffffff831115612ae057612ae0612550565b612af483612aee8354612947565b83612997565b6000601f841160018114612b285760008515612b105750838201355b600019600387901b1c1916600186901b178355611c71565b600083815260209020601f19861690835b82811015612b595786850135825560209485019460019092019101612b39565b5086821015612b765760001960f88860031b161c19848701351681555b505060018560011b0183555050505050565b60ff8416815260406020820152816040820152818360608301376000818301606090810191909152601f909201601f191601019291505056fea2646970667358221220a6d61fbd83b48c68a2cb49d314f3bc0559dd97c1788165784d8e515bd7dfc77864736f6c63430008120033",
  "linkReferences": {},
  "deployedLinkReferences": {}
}